{
  "_format": "hh-sol-artifact-1",
  "contractName": "BuddhaNFT",
  "sourceName": "contracts/BuddhaNFT.sol",
  "abi": [
    {
      "inputs": [],
      "stateMutability": "nonpayable",
      "type": "constructor"
    },
    {
      "anonymous": false,
      "inputs": [
        {
          "indexed": true,
          "internalType": "address",
          "name": "owner",
          "type": "address"
        },
        {
          "indexed": true,
          "internalType": "address",
          "name": "approved",
          "type": "address"
        },
        {
          "indexed": true,
          "internalType": "uint256",
          "name": "tokenId",
          "type": "uint256"
        }
      ],
      "name": "Approval",
      "type": "event"
    },
    {
      "anonymous": false,
      "inputs": [
        {
          "indexed": true,
          "internalType": "address",
          "name": "owner",
          "type": "address"
        },
        {
          "indexed": true,
          "internalType": "address",
          "name": "operator",
          "type": "address"
        },
        {
          "indexed": false,
          "internalType": "bool",
          "name": "approved",
          "type": "bool"
        }
      ],
      "name": "ApprovalForAll",
      "type": "event"
    },
    {
      "anonymous": false,
      "inputs": [
        {
          "indexed": false,
          "internalType": "uint256",
          "name": "_fromTokenId",
          "type": "uint256"
        },
        {
          "indexed": false,
          "internalType": "uint256",
          "name": "_toTokenId",
          "type": "uint256"
        }
      ],
      "name": "BatchMetadataUpdate",
      "type": "event"
    },
    {
      "anonymous": false,
      "inputs": [
        {
          "indexed": false,
          "internalType": "uint256",
          "name": "_tokenId",
          "type": "uint256"
        }
      ],
      "name": "MetadataUpdate",
      "type": "event"
    },
    {
      "anonymous": false,
      "inputs": [
        {
          "indexed": true,
          "internalType": "address",
          "name": "previousOwner",
          "type": "address"
        },
        {
          "indexed": true,
          "internalType": "address",
          "name": "newOwner",
          "type": "address"
        }
      ],
      "name": "OwnershipTransferred",
      "type": "event"
    },
    {
      "anonymous": false,
      "inputs": [
        {
          "indexed": true,
          "internalType": "address",
          "name": "from",
          "type": "address"
        },
        {
          "indexed": true,
          "internalType": "address",
          "name": "to",
          "type": "address"
        },
        {
          "indexed": true,
          "internalType": "uint256",
          "name": "tokenId",
          "type": "uint256"
        }
      ],
      "name": "Transfer",
      "type": "event"
    },
    {
      "inputs": [],
      "name": "ROYALTY_PERCENT",
      "outputs": [
        {
          "internalType": "uint96",
          "name": "",
          "type": "uint96"
        }
      ],
      "stateMutability": "view",
      "type": "function"
    },
    {
      "inputs": [
        {
          "internalType": "address",
          "name": "to",
          "type": "address"
        },
        {
          "internalType": "uint256",
          "name": "tokenId",
          "type": "uint256"
        }
      ],
      "name": "approve",
      "outputs": [],
      "stateMutability": "nonpayable",
      "type": "function"
    },
    {
      "inputs": [
        {
          "internalType": "address",
          "name": "owner",
          "type": "address"
        }
      ],
      "name": "balanceOf",
      "outputs": [
        {
          "internalType": "uint256",
          "name": "",
          "type": "uint256"
        }
      ],
      "stateMutability": "view",
      "type": "function"
    },
    {
      "inputs": [
        {
          "internalType": "uint256",
          "name": "",
          "type": "uint256"
        }
      ],
      "name": "creators",
      "outputs": [
        {
          "internalType": "address",
          "name": "",
          "type": "address"
        }
      ],
      "stateMutability": "view",
      "type": "function"
    },
    {
      "inputs": [
        {
          "internalType": "uint256",
          "name": "tokenId",
          "type": "uint256"
        }
      ],
      "name": "getApproved",
      "outputs": [
        {
          "internalType": "address",
          "name": "",
          "type": "address"
        }
      ],
      "stateMutability": "view",
      "type": "function"
    },
    {
      "inputs": [
        {
          "internalType": "uint256",
          "name": "tokenId",
          "type": "uint256"
        },
        {
          "internalType": "uint256",
          "name": "salePrice",
          "type": "uint256"
        }
      ],
      "name": "getRoyaltyInfo",
      "outputs": [
        {
          "internalType": "address",
          "name": "",
          "type": "address"
        },
        {
          "internalType": "uint256",
          "name": "",
          "type": "uint256"
        }
      ],
      "stateMutability": "view",
      "type": "function"
    },
    {
      "inputs": [
        {
          "internalType": "address",
          "name": "owner",
          "type": "address"
        },
        {
          "internalType": "address",
          "name": "operator",
          "type": "address"
        }
      ],
      "name": "isApprovedForAll",
      "outputs": [
        {
          "internalType": "bool",
          "name": "",
          "type": "bool"
        }
      ],
      "stateMutability": "view",
      "type": "function"
    },
    {
      "inputs": [
        {
          "internalType": "address",
          "name": "to",
          "type": "address"
        },
        {
          "internalType": "string",
          "name": "tokenURI",
          "type": "string"
        }
      ],
      "name": "mint",
      "outputs": [
        {
          "internalType": "uint256",
          "name": "",
          "type": "uint256"
        }
      ],
      "stateMutability": "nonpayable",
      "type": "function"
    },
    {
      "inputs": [],
      "name": "name",
      "outputs": [
        {
          "internalType": "string",
          "name": "",
          "type": "string"
        }
      ],
      "stateMutability": "view",
      "type": "function"
    },
    {
      "inputs": [],
      "name": "nextTokenId",
      "outputs": [
        {
          "internalType": "uint256",
          "name": "",
          "type": "uint256"
        }
      ],
      "stateMutability": "view",
      "type": "function"
    },
    {
      "inputs": [],
      "name": "owner",
      "outputs": [
        {
          "internalType": "address",
          "name": "",
          "type": "address"
        }
      ],
      "stateMutability": "view",
      "type": "function"
    },
    {
      "inputs": [
        {
          "internalType": "uint256",
          "name": "tokenId",
          "type": "uint256"
        }
      ],
      "name": "ownerOf",
      "outputs": [
        {
          "internalType": "address",
          "name": "",
          "type": "address"
        }
      ],
      "stateMutability": "view",
      "type": "function"
    },
    {
      "inputs": [],
      "name": "renounceOwnership",
      "outputs": [],
      "stateMutability": "nonpayable",
      "type": "function"
    },
    {
      "inputs": [
        {
          "internalType": "address",
          "name": "from",
          "type": "address"
        },
        {
          "internalType": "address",
          "name": "to",
          "type": "address"
        },
        {
          "internalType": "uint256",
          "name": "tokenId",
          "type": "uint256"
        }
      ],
      "name": "safeTransferFrom",
      "outputs": [],
      "stateMutability": "nonpayable",
      "type": "function"
    },
    {
      "inputs": [
        {
          "internalType": "address",
          "name": "from",
          "type": "address"
        },
        {
          "internalType": "address",
          "name": "to",
          "type": "address"
        },
        {
          "internalType": "uint256",
          "name": "tokenId",
          "type": "uint256"
        },
        {
          "internalType": "bytes",
          "name": "data",
          "type": "bytes"
        }
      ],
      "name": "safeTransferFrom",
      "outputs": [],
      "stateMutability": "nonpayable",
      "type": "function"
    },
    {
      "inputs": [
        {
          "internalType": "address",
          "name": "operator",
          "type": "address"
        },
        {
          "internalType": "bool",
          "name": "approved",
          "type": "bool"
        }
      ],
      "name": "setApprovalForAll",
      "outputs": [],
      "stateMutability": "nonpayable",
      "type": "function"
    },
    {
      "inputs": [
        {
          "internalType": "bytes4",
          "name": "interfaceId",
          "type": "bytes4"
        }
      ],
      "name": "supportsInterface",
      "outputs": [
        {
          "internalType": "bool",
          "name": "",
          "type": "bool"
        }
      ],
      "stateMutability": "view",
      "type": "function"
    },
    {
      "inputs": [],
      "name": "symbol",
      "outputs": [
        {
          "internalType": "string",
          "name": "",
          "type": "string"
        }
      ],
      "stateMutability": "view",
      "type": "function"
    },
    {
      "inputs": [
        {
          "internalType": "uint256",
          "name": "index",
          "type": "uint256"
        }
      ],
      "name": "tokenByIndex",
      "outputs": [
        {
          "internalType": "uint256",
          "name": "",
          "type": "uint256"
        }
      ],
      "stateMutability": "view",
      "type": "function"
    },
    {
      "inputs": [
        {
          "internalType": "address",
          "name": "owner",
          "type": "address"
        },
        {
          "internalType": "uint256",
          "name": "index",
          "type": "uint256"
        }
      ],
      "name": "tokenOfOwnerByIndex",
      "outputs": [
        {
          "internalType": "uint256",
          "name": "",
          "type": "uint256"
        }
      ],
      "stateMutability": "view",
      "type": "function"
    },
    {
      "inputs": [
        {
          "internalType": "uint256",
          "name": "tokenId",
          "type": "uint256"
        }
      ],
      "name": "tokenURI",
      "outputs": [
        {
          "internalType": "string",
          "name": "",
          "type": "string"
        }
      ],
      "stateMutability": "view",
      "type": "function"
    },
    {
      "inputs": [],
      "name": "totalSupply",
      "outputs": [
        {
          "internalType": "uint256",
          "name": "",
          "type": "uint256"
        }
      ],
      "stateMutability": "view",
      "type": "function"
    },
    {
      "inputs": [
        {
          "internalType": "address",
          "name": "from",
          "type": "address"
        },
        {
          "internalType": "address",
          "name": "to",
          "type": "address"
        },
        {
          "internalType": "uint256",
          "name": "tokenId",
          "type": "uint256"
        }
      ],
      "name": "transferFrom",
      "outputs": [],
      "stateMutability": "nonpayable",
      "type": "function"
    },
    {
      "inputs": [
        {
          "internalType": "address",
          "name": "newOwner",
          "type": "address"
        }
      ],
      "name": "transferOwnership",
      "outputs": [],
      "stateMutability": "nonpayable",
      "type": "function"
    }
  ],
  "bytecode": "0x60806040523480156200001157600080fd5b506040518060400160405280600981526020017f4275646468614e465400000000000000000000000000000000000000000000008152506040518060400160405280600481526020017f424e46540000000000000000000000000000000000000000000000000000000081525081600090816200008f919062000412565b508060019081620000a1919062000412565b505050620000c4620000b8620000ca60201b60201c565b620000d260201b60201c565b620004f9565b600033905090565b6000600b60009054906101000a900473ffffffffffffffffffffffffffffffffffffffff16905081600b60006101000a81548173ffffffffffffffffffffffffffffffffffffffff021916908373ffffffffffffffffffffffffffffffffffffffff1602179055508173ffffffffffffffffffffffffffffffffffffffff168173ffffffffffffffffffffffffffffffffffffffff167f8be0079c531659141344cd1fd0a4f28419497f9722a3daafe3b4186f6b6457e060405160405180910390a35050565b600081519050919050565b7f4e487b7100000000000000000000000000000000000000000000000000000000600052604160045260246000fd5b7f4e487b7100000000000000000000000000000000000000000000000000000000600052602260045260246000fd5b600060028204905060018216806200021a57607f821691505b60208210810362000230576200022f620001d2565b5b50919050565b60008190508160005260206000209050919050565b60006020601f8301049050919050565b600082821b905092915050565b6000600883026200029a7fffffffffffffffffffffffffffffffffffffffffffffffffffffffffffffffff826200025b565b620002a686836200025b565b95508019841693508086168417925050509392505050565b6000819050919050565b6000819050919050565b6000620002f3620002ed620002e784620002be565b620002c8565b620002be565b9050919050565b6000819050919050565b6200030f83620002d2565b620003276200031e82620002fa565b84845462000268565b825550505050565b600090565b6200033e6200032f565b6200034b81848462000304565b505050565b5b8181101562000373576200036760008262000334565b60018101905062000351565b5050565b601f821115620003c2576200038c8162000236565b62000397846200024b565b81016020851015620003a7578190505b620003bf620003b6856200024b565b83018262000350565b50505b505050565b600082821c905092915050565b6000620003e760001984600802620003c7565b1980831691505092915050565b6000620004028383620003d4565b9150826002028217905092915050565b6200041d8262000198565b67ffffffffffffffff811115620004395762000438620001a3565b5b62000445825462000201565b6200045282828562000377565b600060209050601f8311600181146200048a576000841562000475578287015190505b620004818582620003f4565b865550620004f1565b601f1984166200049a8662000236565b60005b82811015620004c4578489015182556001820191506020850194506020810190506200049d565b86831015620004e45784890151620004e0601f891682620003d4565b8355505b6001600288020188555050505b505050505050565b613b2780620005096000396000f3fe608060405234801561001057600080fd5b50600436106101585760003560e01c806375794a3c116100c3578063c87b56dd1161007c578063c87b56dd146103da578063cd53d08e1461040a578063cdcd897e1461043a578063d0def52114610458578063e985e9c514610488578063f2fde38b146104b857610158565b806375794a3c146103175780638da5cb5b1461033557806395d89b4114610353578063a22cb46514610371578063b88d4fde1461038d578063c7ed115e146103a957610158565b80632f745c59116101155780632f745c591461023157806342842e0e146102615780634f6ccce71461027d5780636352211e146102ad57806370a08231146102dd578063715018a61461030d57610158565b806301ffc9a71461015d57806306fdde031461018d578063081812fc146101ab578063095ea7b3146101db57806318160ddd146101f757806323b872dd14610215575b600080fd5b6101776004803603810190610172919061253b565b6104d4565b6040516101849190612583565b60405180910390f35b6101956104e6565b6040516101a2919061262e565b60405180910390f35b6101c560048036038101906101c09190612686565b610578565b6040516101d291906126f4565b60405180910390f35b6101f560048036038101906101f0919061273b565b6105be565b005b6101ff6106d5565b60405161020c919061278a565b60405180910390f35b61022f600480360381019061022a91906127a5565b6106e2565b005b61024b6004803603810190610246919061273b565b610742565b604051610258919061278a565b60405180910390f35b61027b600480360381019061027691906127a5565b6107e7565b005b61029760048036038101906102929190612686565b610807565b6040516102a4919061278a565b60405180910390f35b6102c760048036038101906102c29190612686565b610878565b6040516102d491906126f4565b60405180910390f35b6102f760048036038101906102f291906127f8565b6108fe565b604051610304919061278a565b60405180910390f35b6103156109b5565b005b61031f6109c9565b60405161032c919061278a565b60405180910390f35b61033d6109cf565b60405161034a91906126f4565b60405180910390f35b61035b6109f9565b604051610368919061262e565b60405180910390f35b61038b60048036038101906103869190612851565b610a8b565b005b6103a760048036038101906103a291906129c6565b610aa1565b005b6103c360048036038101906103be9190612a49565b610b03565b6040516103d1929190612a89565b60405180910390f35b6103f460048036038101906103ef9190612686565b610b7a565b604051610401919061262e565b60405180910390f35b610424600480360381019061041f9190612686565b610b8c565b60405161043191906126f4565b60405180910390f35b610442610bbf565b60405161044f9190612ad9565b60405180910390f35b610472600480360381019061046d9190612b95565b610bc5565b60405161047f919061278a565b60405180910390f35b6104a2600480360381019061049d9190612bf1565b610c55565b6040516104af9190612583565b60405180910390f35b6104d260048036038101906104cd91906127f8565b610ce9565b005b60006104df82610d6c565b9050919050565b6060600080546104f590612c60565b80601f016020809104026020016040519081016040528092919081815260200182805461052190612c60565b801561056e5780601f106105435761010080835404028352916020019161056e565b820191906000526020600020905b81548152906001019060200180831161055157829003601f168201915b5050505050905090565b600061058382610dcd565b6004600083815260200190815260200160002060009054906101000a900473ffffffffffffffffffffffffffffffffffffffff169050919050565b60006105c982610878565b90508073ffffffffffffffffffffffffffffffffffffffff168373ffffffffffffffffffffffffffffffffffffffff1603610639576040517f08c379a000000000000000000000000000000000000000000000000000000000815260040161063090612d03565b60405180910390fd5b8073ffffffffffffffffffffffffffffffffffffffff16610658610e18565b73ffffffffffffffffffffffffffffffffffffffff161480610687575061068681610681610e18565b610c55565b5b6106c6576040517f08c379a00000000000000000000000000000000000000000000000000000000081526004016106bd90612d95565b60405180910390fd5b6106d08383610e20565b505050565b6000600880549050905090565b6106f36106ed610e18565b82610ed9565b610732576040517f08c379a000000000000000000000000000000000000000000000000000000000815260040161072990612e27565b60405180910390fd5b61073d838383610f6e565b505050565b600061074d836108fe565b821061078e576040517f08c379a000000000000000000000000000000000000000000000000000000000815260040161078590612eb9565b60405180910390fd5b600660008473ffffffffffffffffffffffffffffffffffffffff1673ffffffffffffffffffffffffffffffffffffffff168152602001908152602001600020600083815260200190815260200160002054905092915050565b61080283838360405180602001604052806000815250610aa1565b505050565b60006108116106d5565b8210610852576040517f08c379a000000000000000000000000000000000000000000000000000000000815260040161084990612f4b565b60405180910390fd5b6008828154811061086657610865612f6b565b5b90600052602060002001549050919050565b60008061088483611267565b9050600073ffffffffffffffffffffffffffffffffffffffff168173ffffffffffffffffffffffffffffffffffffffff16036108f5576040517f08c379a00000000000000000000000000000000000000000000000000000000081526004016108ec90612fe6565b60405180910390fd5b80915050919050565b60008073ffffffffffffffffffffffffffffffffffffffff168273ffffffffffffffffffffffffffffffffffffffff160361096e576040517f08c379a000000000000000000000000000000000000000000000000000000000815260040161096590613078565b60405180910390fd5b600360008373ffffffffffffffffffffffffffffffffffffffff1673ffffffffffffffffffffffffffffffffffffffff168152602001908152602001600020549050919050565b6109bd6112a4565b6109c76000611322565b565b600c5481565b6000600b60009054906101000a900473ffffffffffffffffffffffffffffffffffffffff16905090565b606060018054610a0890612c60565b80601f0160208091040260200160405190810160405280929190818152602001828054610a3490612c60565b8015610a815780601f10610a5657610100808354040283529160200191610a81565b820191906000526020600020905b815481529060010190602001808311610a6457829003601f168201915b5050505050905090565b610a9d610a96610e18565b83836113e8565b5050565b610ab2610aac610e18565b83610ed9565b610af1576040517f08c379a0000000000000000000000000000000000000000000000000000000008152600401610ae890612e27565b60405180910390fd5b610afd84848484611554565b50505050565b6000806000600d600086815260200190815260200160002060009054906101000a900473ffffffffffffffffffffffffffffffffffffffff16905060006127106101f46bffffffffffffffffffffffff1686610b5f91906130c7565b610b699190613138565b905081819350935050509250929050565b6060610b85826115b0565b9050919050565b600d6020528060005260406000206000915054906101000a900473ffffffffffffffffffffffffffffffffffffffff1681565b6101f481565b600080600c549050610bd784826116c2565b610be181846116e0565b33600d600083815260200190815260200160002060006101000a81548173ffffffffffffffffffffffffffffffffffffffff021916908373ffffffffffffffffffffffffffffffffffffffff160217905550600c6000815480929190610c4690613169565b91905055508091505092915050565b6000600560008473ffffffffffffffffffffffffffffffffffffffff1673ffffffffffffffffffffffffffffffffffffffff16815260200190815260200160002060008373ffffffffffffffffffffffffffffffffffffffff1673ffffffffffffffffffffffffffffffffffffffff16815260200190815260200160002060009054906101000a900460ff16905092915050565b610cf16112a4565b600073ffffffffffffffffffffffffffffffffffffffff168173ffffffffffffffffffffffffffffffffffffffff1603610d60576040517f08c379a0000000000000000000000000000000000000000000000000000000008152600401610d5790613223565b60405180910390fd5b610d6981611322565b50565b6000634906490660e01b7bffffffffffffffffffffffffffffffffffffffffffffffffffffffff1916827bffffffffffffffffffffffffffffffffffffffffffffffffffffffff19161480610dc65750610dc582611784565b5b9050919050565b610dd6816117fe565b610e15576040517f08c379a0000000000000000000000000000000000000000000000000000000008152600401610e0c90612fe6565b60405180910390fd5b50565b600033905090565b816004600083815260200190815260200160002060006101000a81548173ffffffffffffffffffffffffffffffffffffffff021916908373ffffffffffffffffffffffffffffffffffffffff160217905550808273ffffffffffffffffffffffffffffffffffffffff16610e9383610878565b73ffffffffffffffffffffffffffffffffffffffff167f8c5be1e5ebec7d5bd14f71427d1e84f3dd0314c0f7b2291e5b200ac8c7c3b92560405160405180910390a45050565b600080610ee583610878565b90508073ffffffffffffffffffffffffffffffffffffffff168473ffffffffffffffffffffffffffffffffffffffff161480610f275750610f268185610c55565b5b80610f6557508373ffffffffffffffffffffffffffffffffffffffff16610f4d84610578565b73ffffffffffffffffffffffffffffffffffffffff16145b91505092915050565b8273ffffffffffffffffffffffffffffffffffffffff16610f8e82610878565b73ffffffffffffffffffffffffffffffffffffffff1614610fe4576040517f08c379a0000000000000000000000000000000000000000000000000000000008152600401610fdb906132b5565b60405180910390fd5b600073ffffffffffffffffffffffffffffffffffffffff168273ffffffffffffffffffffffffffffffffffffffff1603611053576040517f08c379a000000000000000000000000000000000000000000000000000000000815260040161104a90613347565b60405180910390fd5b611060838383600161183f565b8273ffffffffffffffffffffffffffffffffffffffff1661108082610878565b73ffffffffffffffffffffffffffffffffffffffff16146110d6576040517f08c379a00000000000000000000000000000000000000000000000000000000081526004016110cd906132b5565b60405180910390fd5b6004600082815260200190815260200160002060006101000a81549073ffffffffffffffffffffffffffffffffffffffff02191690556001600360008573ffffffffffffffffffffffffffffffffffffffff1673ffffffffffffffffffffffffffffffffffffffff168152602001908152602001600020600082825403925050819055506001600360008473ffffffffffffffffffffffffffffffffffffffff1673ffffffffffffffffffffffffffffffffffffffff16815260200190815260200160002060008282540192505081905550816002600083815260200190815260200160002060006101000a81548173ffffffffffffffffffffffffffffffffffffffff021916908373ffffffffffffffffffffffffffffffffffffffff160217905550808273ffffffffffffffffffffffffffffffffffffffff168473ffffffffffffffffffffffffffffffffffffffff167fddf252ad1be2c89b69c2b068fc378daa952ba7f163c4a11628f55a4df523b3ef60405160405180910390a46112628383836001611851565b505050565b60006002600083815260200190815260200160002060009054906101000a900473ffffffffffffffffffffffffffffffffffffffff169050919050565b6112ac610e18565b73ffffffffffffffffffffffffffffffffffffffff166112ca6109cf565b73ffffffffffffffffffffffffffffffffffffffff1614611320576040517f08c379a0000000000000000000000000000000000000000000000000000000008152600401611317906133b3565b60405180910390fd5b565b6000600b60009054906101000a900473ffffffffffffffffffffffffffffffffffffffff16905081600b60006101000a81548173ffffffffffffffffffffffffffffffffffffffff021916908373ffffffffffffffffffffffffffffffffffffffff1602179055508173ffffffffffffffffffffffffffffffffffffffff168173ffffffffffffffffffffffffffffffffffffffff167f8be0079c531659141344cd1fd0a4f28419497f9722a3daafe3b4186f6b6457e060405160405180910390a35050565b8173ffffffffffffffffffffffffffffffffffffffff168373ffffffffffffffffffffffffffffffffffffffff1603611456576040517f08c379a000000000000000000000000000000000000000000000000000000000815260040161144d9061341f565b60405180910390fd5b80600560008573ffffffffffffffffffffffffffffffffffffffff1673ffffffffffffffffffffffffffffffffffffffff16815260200190815260200160002060008473ffffffffffffffffffffffffffffffffffffffff1673ffffffffffffffffffffffffffffffffffffffff16815260200190815260200160002060006101000a81548160ff0219169083151502179055508173ffffffffffffffffffffffffffffffffffffffff168373ffffffffffffffffffffffffffffffffffffffff167f17307eab39ab6107e8899845ad3d59bd9653f200f220920489ca2b5937696c31836040516115479190612583565b60405180910390a3505050565b61155f848484610f6e565b61156b84848484611857565b6115aa576040517f08c379a00000000000000000000000000000000000000000000000000000000081526004016115a1906134b1565b60405180910390fd5b50505050565b60606115bb82610dcd565b6000600a600084815260200190815260200160002080546115db90612c60565b80601f016020809104026020016040519081016040528092919081815260200182805461160790612c60565b80156116545780601f1061162957610100808354040283529160200191611654565b820191906000526020600020905b81548152906001019060200180831161163757829003601f168201915b5050505050905060006116656119de565b9050600081510361167a5781925050506116bd565b6000825111156116af57808260405160200161169792919061350d565b604051602081830303815290604052925050506116bd565b6116b8846119f5565b925050505b919050565b6116dc828260405180602001604052806000815250611a5d565b5050565b6116e9826117fe565b611728576040517f08c379a000000000000000000000000000000000000000000000000000000000815260040161171f906135a3565b60405180910390fd5b80600a60008481526020019081526020016000209081611748919061376f565b507ff8e1a15aba9398e019f0b49df1a4fde98ee17ae345cb5f6b5e2c27f5033e8ce782604051611778919061278a565b60405180910390a15050565b60007f780e9d63000000000000000000000000000000000000000000000000000000007bffffffffffffffffffffffffffffffffffffffffffffffffffffffff1916827bffffffffffffffffffffffffffffffffffffffffffffffffffffffff191614806117f757506117f682611ab8565b5b9050919050565b60008073ffffffffffffffffffffffffffffffffffffffff1661182083611267565b73ffffffffffffffffffffffffffffffffffffffff1614159050919050565b61184b84848484611b9a565b50505050565b50505050565b60006118788473ffffffffffffffffffffffffffffffffffffffff16611cf8565b156119d1578373ffffffffffffffffffffffffffffffffffffffff1663150b7a026118a1610e18565b8786866040518563ffffffff1660e01b81526004016118c39493929190613896565b6020604051808303816000875af19250505080156118ff57506040513d601f19601f820116820180604052508101906118fc91906138f7565b60015b611981573d806000811461192f576040519150601f19603f3d011682016040523d82523d6000602084013e611934565b606091505b506000815103611979576040517f08c379a0000000000000000000000000000000000000000000000000000000008152600401611970906134b1565b60405180910390fd5b805181602001fd5b63150b7a0260e01b7bffffffffffffffffffffffffffffffffffffffffffffffffffffffff1916817bffffffffffffffffffffffffffffffffffffffffffffffffffffffff1916149150506119d6565b600190505b949350505050565b606060405180602001604052806000815250905090565b6060611a0082610dcd565b6000611a0a6119de565b90506000815111611a2a5760405180602001604052806000815250611a55565b80611a3484611d1b565b604051602001611a4592919061350d565b6040516020818303038152906040525b915050919050565b611a678383611de9565b611a746000848484611857565b611ab3576040517f08c379a0000000000000000000000000000000000000000000000000000000008152600401611aaa906134b1565b60405180910390fd5b505050565b60007f80ac58cd000000000000000000000000000000000000000000000000000000007bffffffffffffffffffffffffffffffffffffffffffffffffffffffff1916827bffffffffffffffffffffffffffffffffffffffffffffffffffffffff19161480611b8357507f5b5e139f000000000000000000000000000000000000000000000000000000007bffffffffffffffffffffffffffffffffffffffffffffffffffffffff1916827bffffffffffffffffffffffffffffffffffffffffffffffffffffffff1916145b80611b935750611b9282612006565b5b9050919050565b611ba684848484612070565b6001811115611bea576040517f08c379a0000000000000000000000000000000000000000000000000000000008152600401611be190613996565b60405180910390fd5b6000829050600073ffffffffffffffffffffffffffffffffffffffff168573ffffffffffffffffffffffffffffffffffffffff1603611c3157611c2c81612076565b611c70565b8373ffffffffffffffffffffffffffffffffffffffff168573ffffffffffffffffffffffffffffffffffffffff1614611c6f57611c6e85826120bf565b5b5b600073ffffffffffffffffffffffffffffffffffffffff168473ffffffffffffffffffffffffffffffffffffffff1603611cb257611cad8161222c565b611cf1565b8473ffffffffffffffffffffffffffffffffffffffff168473ffffffffffffffffffffffffffffffffffffffff1614611cf057611cef84826122fd565b5b5b5050505050565b6000808273ffffffffffffffffffffffffffffffffffffffff163b119050919050565b606060006001611d2a8461237c565b01905060008167ffffffffffffffff811115611d4957611d4861289b565b5b6040519080825280601f01601f191660200182016040528015611d7b5781602001600182028036833780820191505090505b509050600082602001820190505b600115611dde578080600190039150507f3031323334353637383961626364656600000000000000000000000000000000600a86061a8153600a8581611dd257611dd1613109565b5b04945060008503611d89575b819350505050919050565b600073ffffffffffffffffffffffffffffffffffffffff168273ffffffffffffffffffffffffffffffffffffffff1603611e58576040517f08c379a0000000000000000000000000000000000000000000000000000000008152600401611e4f90613a02565b60405180910390fd5b611e61816117fe565b15611ea1576040517f08c379a0000000000000000000000000000000000000000000000000000000008152600401611e9890613a6e565b60405180910390fd5b611eaf60008383600161183f565b611eb8816117fe565b15611ef8576040517f08c379a0000000000000000000000000000000000000000000000000000000008152600401611eef90613a6e565b60405180910390fd5b6001600360008473ffffffffffffffffffffffffffffffffffffffff1673ffffffffffffffffffffffffffffffffffffffff16815260200190815260200160002060008282540192505081905550816002600083815260200190815260200160002060006101000a81548173ffffffffffffffffffffffffffffffffffffffff021916908373ffffffffffffffffffffffffffffffffffffffff160217905550808273ffffffffffffffffffffffffffffffffffffffff16600073ffffffffffffffffffffffffffffffffffffffff167fddf252ad1be2c89b69c2b068fc378daa952ba7f163c4a11628f55a4df523b3ef60405160405180910390a4612002600083836001611851565b5050565b60007f01ffc9a7000000000000000000000000000000000000000000000000000000007bffffffffffffffffffffffffffffffffffffffffffffffffffffffff1916827bffffffffffffffffffffffffffffffffffffffffffffffffffffffff1916149050919050565b50505050565b6008805490506009600083815260200190815260200160002081905550600881908060018154018082558091505060019003906000526020600020016000909190919091505550565b600060016120cc846108fe565b6120d69190613a8e565b90506000600760008481526020019081526020016000205490508181146121bb576000600660008673ffffffffffffffffffffffffffffffffffffffff1673ffffffffffffffffffffffffffffffffffffffff168152602001908152602001600020600084815260200190815260200160002054905080600660008773ffffffffffffffffffffffffffffffffffffffff1673ffffffffffffffffffffffffffffffffffffffff168152602001908152602001600020600084815260200190815260200160002081905550816007600083815260200190815260200160002081905550505b6007600084815260200190815260200160002060009055600660008573ffffffffffffffffffffffffffffffffffffffff1673ffffffffffffffffffffffffffffffffffffffff16815260200190815260200160002060008381526020019081526020016000206000905550505050565b600060016008805490506122409190613a8e565b90506000600960008481526020019081526020016000205490506000600883815481106122705761226f612f6b565b5b90600052602060002001549050806008838154811061229257612291612f6b565b5b9060005260206000200181905550816009600083815260200190815260200160002081905550600960008581526020019081526020016000206000905560088054806122e1576122e0613ac2565b5b6001900381819060005260206000200160009055905550505050565b6000612308836108fe565b905081600660008573ffffffffffffffffffffffffffffffffffffffff1673ffffffffffffffffffffffffffffffffffffffff168152602001908152602001600020600083815260200190815260200160002081905550806007600084815260200190815260200160002081905550505050565b600080600090507a184f03e93ff9f4daa797ed6e38ed64bf6a1f01000000000000000083106123da577a184f03e93ff9f4daa797ed6e38ed64bf6a1f01000000000000000083816123d0576123cf613109565b5b0492506040810190505b6d04ee2d6d415b85acef81000000008310612417576d04ee2d6d415b85acef8100000000838161240d5761240c613109565b5b0492506020810190505b662386f26fc10000831061244657662386f26fc10000838161243c5761243b613109565b5b0492506010810190505b6305f5e100831061246f576305f5e100838161246557612464613109565b5b0492506008810190505b612710831061249457612710838161248a57612489613109565b5b0492506004810190505b606483106124b757606483816124ad576124ac613109565b5b0492506002810190505b600a83106124c6576001810190505b80915050919050565b6000604051905090565b600080fd5b600080fd5b60007fffffffff0000000000000000000000000000000000000000000000000000000082169050919050565b612518816124e3565b811461252357600080fd5b50565b6000813590506125358161250f565b92915050565b600060208284031215612551576125506124d9565b5b600061255f84828501612526565b91505092915050565b60008115159050919050565b61257d81612568565b82525050565b60006020820190506125986000830184612574565b92915050565b600081519050919050565b600082825260208201905092915050565b60005b838110156125d85780820151818401526020810190506125bd565b60008484015250505050565b6000601f19601f8301169050919050565b60006126008261259e565b61260a81856125a9565b935061261a8185602086016125ba565b612623816125e4565b840191505092915050565b6000602082019050818103600083015261264881846125f5565b905092915050565b6000819050919050565b61266381612650565b811461266e57600080fd5b50565b6000813590506126808161265a565b92915050565b60006020828403121561269c5761269b6124d9565b5b60006126aa84828501612671565b91505092915050565b600073ffffffffffffffffffffffffffffffffffffffff82169050919050565b60006126de826126b3565b9050919050565b6126ee816126d3565b82525050565b600060208201905061270960008301846126e5565b92915050565b612718816126d3565b811461272357600080fd5b50565b6000813590506127358161270f565b92915050565b60008060408385031215612752576127516124d9565b5b600061276085828601612726565b925050602061277185828601612671565b9150509250929050565b61278481612650565b82525050565b600060208201905061279f600083018461277b565b92915050565b6000806000606084860312156127be576127bd6124d9565b5b60006127cc86828701612726565b93505060206127dd86828701612726565b92505060406127ee86828701612671565b9150509250925092565b60006020828403121561280e5761280d6124d9565b5b600061281c84828501612726565b91505092915050565b61282e81612568565b811461283957600080fd5b50565b60008135905061284b81612825565b92915050565b60008060408385031215612868576128676124d9565b5b600061287685828601612726565b92505060206128878582860161283c565b9150509250929050565b600080fd5b600080fd5b7f4e487b7100000000000000000000000000000000000000000000000000000000600052604160045260246000fd5b6128d3826125e4565b810181811067ffffffffffffffff821117156128f2576128f161289b565b5b80604052505050565b60006129056124cf565b905061291182826128ca565b919050565b600067ffffffffffffffff8211156129315761293061289b565b5b61293a826125e4565b9050602081019050919050565b82818337600083830152505050565b600061296961296484612916565b6128fb565b90508281526020810184848401111561298557612984612896565b5b612990848285612947565b509392505050565b600082601f8301126129ad576129ac612891565b5b81356129bd848260208601612956565b91505092915050565b600080600080608085870312156129e0576129df6124d9565b5b60006129ee87828801612726565b94505060206129ff87828801612726565b9350506040612a1087828801612671565b925050606085013567ffffffffffffffff811115612a3157612a306124de565b5b612a3d87828801612998565b91505092959194509250565b60008060408385031215612a6057612a5f6124d9565b5b6000612a6e85828601612671565b9250506020612a7f85828601612671565b9150509250929050565b6000604082019050612a9e60008301856126e5565b612aab602083018461277b565b9392505050565b60006bffffffffffffffffffffffff82169050919050565b612ad381612ab2565b82525050565b6000602082019050612aee6000830184612aca565b92915050565b600067ffffffffffffffff821115612b0f57612b0e61289b565b5b612b18826125e4565b9050602081019050919050565b6000612b38612b3384612af4565b6128fb565b905082815260208101848484011115612b5457612b53612896565b5b612b5f848285612947565b509392505050565b600082601f830112612b7c57612b7b612891565b5b8135612b8c848260208601612b25565b91505092915050565b60008060408385031215612bac57612bab6124d9565b5b6000612bba85828601612726565b925050602083013567ffffffffffffffff811115612bdb57612bda6124de565b5b612be785828601612b67565b9150509250929050565b60008060408385031215612c0857612c076124d9565b5b6000612c1685828601612726565b9250506020612c2785828601612726565b9150509250929050565b7f4e487b7100000000000000000000000000000000000000000000000000000000600052602260045260246000fd5b60006002820490506001821680612c7857607f821691505b602082108103612c8b57612c8a612c31565b5b50919050565b7f4552433732313a20617070726f76616c20746f2063757272656e74206f776e6560008201527f7200000000000000000000000000000000000000000000000000000000000000602082015250565b6000612ced6021836125a9565b9150612cf882612c91565b604082019050919050565b60006020820190508181036000830152612d1c81612ce0565b9050919050565b7f4552433732313a20617070726f76652063616c6c6572206973206e6f7420746f60008201527f6b656e206f776e6572206f7220617070726f76656420666f7220616c6c000000602082015250565b6000612d7f603d836125a9565b9150612d8a82612d23565b604082019050919050565b60006020820190508181036000830152612dae81612d72565b9050919050565b7f4552433732313a2063616c6c6572206973206e6f7420746f6b656e206f776e6560008201527f72206f7220617070726f76656400000000000000000000000000000000000000602082015250565b6000612e11602d836125a9565b9150612e1c82612db5565b604082019050919050565b60006020820190508181036000830152612e4081612e04565b9050919050565b7f455243373231456e756d657261626c653a206f776e657220696e646578206f7560008201527f74206f6620626f756e6473000000000000000000000000000000000000000000602082015250565b6000612ea3602b836125a9565b9150612eae82612e47565b604082019050919050565b60006020820190508181036000830152612ed281612e96565b9050919050565b7f455243373231456e756d657261626c653a20676c6f62616c20696e646578206f60008201527f7574206f6620626f756e64730000000000000000000000000000000000000000602082015250565b6000612f35602c836125a9565b9150612f4082612ed9565b604082019050919050565b60006020820190508181036000830152612f6481612f28565b9050919050565b7f4e487b7100000000000000000000000000000000000000000000000000000000600052603260045260246000fd5b7f4552433732313a20696e76616c696420746f6b656e2049440000000000000000600082015250565b6000612fd06018836125a9565b9150612fdb82612f9a565b602082019050919050565b60006020820190508181036000830152612fff81612fc3565b9050919050565b7f4552433732313a2061646472657373207a65726f206973206e6f74206120766160008201527f6c6964206f776e65720000000000000000000000000000000000000000000000602082015250565b60006130626029836125a9565b915061306d82613006565b604082019050919050565b6000602082019050818103600083015261309181613055565b9050919050565b7f4e487b7100000000000000000000000000000000000000000000000000000000600052601160045260246000fd5b60006130d282612650565b91506130dd83612650565b92508282026130eb81612650565b9150828204841483151761310257613101613098565b5b5092915050565b7f4e487b7100000000000000000000000000000000000000000000000000000000600052601260045260246000fd5b600061314382612650565b915061314e83612650565b92508261315e5761315d613109565b5b828204905092915050565b600061317482612650565b91507fffffffffffffffffffffffffffffffffffffffffffffffffffffffffffffffff82036131a6576131a5613098565b5b600182019050919050565b7f4f776e61626c653a206e6577206f776e657220697320746865207a65726f206160008201527f6464726573730000000000000000000000000000000000000000000000000000602082015250565b600061320d6026836125a9565b9150613218826131b1565b604082019050919050565b6000602082019050818103600083015261323c81613200565b9050919050565b7f4552433732313a207472616e736665722066726f6d20696e636f72726563742060008201527f6f776e6572000000000000000000000000000000000000000000000000000000602082015250565b600061329f6025836125a9565b91506132aa82613243565b604082019050919050565b600060208201905081810360008301526132ce81613292565b9050919050565b7f4552433732313a207472616e7366657220746f20746865207a65726f2061646460008201527f7265737300000000000000000000000000000000000000000000000000000000602082015250565b60006133316024836125a9565b915061333c826132d5565b604082019050919050565b6000602082019050818103600083015261336081613324565b9050919050565b7f4f776e61626c653a2063616c6c6572206973206e6f7420746865206f776e6572600082015250565b600061339d6020836125a9565b91506133a882613367565b602082019050919050565b600060208201905081810360008301526133cc81613390565b9050919050565b7f4552433732313a20617070726f766520746f2063616c6c657200000000000000600082015250565b60006134096019836125a9565b9150613414826133d3565b602082019050919050565b60006020820190508181036000830152613438816133fc565b9050919050565b7f4552433732313a207472616e7366657220746f206e6f6e20455243373231526560008201527f63656976657220696d706c656d656e7465720000000000000000000000000000602082015250565b600061349b6032836125a9565b91506134a68261343f565b604082019050919050565b600060208201905081810360008301526134ca8161348e565b9050919050565b600081905092915050565b60006134e78261259e565b6134f181856134d1565b93506135018185602086016125ba565b80840191505092915050565b600061351982856134dc565b915061352582846134dc565b91508190509392505050565b7f45524337323155524953746f726167653a2055524920736574206f66206e6f6e60008201527f6578697374656e7420746f6b656e000000000000000000000000000000000000602082015250565b600061358d602e836125a9565b915061359882613531565b604082019050919050565b600060208201905081810360008301526135bc81613580565b9050919050565b60008190508160005260206000209050919050565b60006020601f8301049050919050565b600082821b905092915050565b6000600883026136257fffffffffffffffffffffffffffffffffffffffffffffffffffffffffffffffff826135e8565b61362f86836135e8565b95508019841693508086168417925050509392505050565b6000819050919050565b600061366c61366761366284612650565b613647565b612650565b9050919050565b6000819050919050565b61368683613651565b61369a61369282613673565b8484546135f5565b825550505050565b600090565b6136af6136a2565b6136ba81848461367d565b505050565b5b818110156136de576136d36000826136a7565b6001810190506136c0565b5050565b601f821115613723576136f4816135c3565b6136fd846135d8565b8101602085101561370c578190505b613720613718856135d8565b8301826136bf565b50505b505050565b600082821c905092915050565b600061374660001984600802613728565b1980831691505092915050565b600061375f8383613735565b9150826002028217905092915050565b6137788261259e565b67ffffffffffffffff8111156137915761379061289b565b5b61379b8254612c60565b6137a68282856136e2565b600060209050601f8311600181146137d957600084156137c7578287015190505b6137d18582613753565b865550613839565b601f1984166137e7866135c3565b60005b8281101561380f578489015182556001820191506020850194506020810190506137ea565b8683101561382c5784890151613828601f891682613735565b8355505b6001600288020188555050505b505050505050565b600081519050919050565b600082825260208201905092915050565b600061386882613841565b613872818561384c565b93506138828185602086016125ba565b61388b816125e4565b840191505092915050565b60006080820190506138ab60008301876126e5565b6138b860208301866126e5565b6138c5604083018561277b565b81810360608301526138d7818461385d565b905095945050505050565b6000815190506138f18161250f565b92915050565b60006020828403121561390d5761390c6124d9565b5b600061391b848285016138e2565b91505092915050565b7f455243373231456e756d657261626c653a20636f6e736563757469766520747260008201527f616e7366657273206e6f7420737570706f727465640000000000000000000000602082015250565b60006139806035836125a9565b915061398b82613924565b604082019050919050565b600060208201905081810360008301526139af81613973565b9050919050565b7f4552433732313a206d696e7420746f20746865207a65726f2061646472657373600082015250565b60006139ec6020836125a9565b91506139f7826139b6565b602082019050919050565b60006020820190508181036000830152613a1b816139df565b9050919050565b7f4552433732313a20746f6b656e20616c7265616479206d696e74656400000000600082015250565b6000613a58601c836125a9565b9150613a6382613a22565b602082019050919050565b60006020820190508181036000830152613a8781613a4b565b9050919050565b6000613a9982612650565b9150613aa483612650565b9250828203905081811115613abc57613abb613098565b5b92915050565b7f4e487b7100000000000000000000000000000000000000000000000000000000600052603160045260246000fdfea26469706673582212207a092b37eafbd4277356d13a2193987b43c8624c4c820b842117aa2dbf076a2164736f6c63430008140033",
  "linkReferences": {},
  "deployedLinkReferences": {}
}