{
  "_format": "hh-sol-artifact-1",
  "contractName": "EnglishAuction",
  "sourceName": "contracts/EnglishAuction.sol",
  "abi": [
    {
      "inputs": [
        {
          "internalType": "address",
          "name": "_nft",
          "type": "address"
        },
        {
          "internalType": "uint256",
          "name": "_tokenId",
          "type": "uint256"
        },
        {
          "internalType": "uint256",
          "name": "_duration",
          "type": "uint256"
        }
      ],
      "stateMutability": "nonpayable",
      "type": "constructor"
    },
    {
      "anonymous": false,
      "inputs": [
        {
          "indexed": false,
          "internalType": "address",
          "name": "winner",
          "type": "address"
        },
        {
          "indexed": false,
          "internalType": "uint256",
          "name": "amount",
          "type": "uint256"
        }
      ],
      "name": "AuctionEnded",
      "type": "event"
    },
    {
      "anonymous": false,
      "inputs": [
        {
          "indexed": false,
          "internalType": "address",
          "name": "bidder",
          "type": "address"
        },
        {
          "indexed": false,
          "internalType": "uint256",
          "name": "amount",
          "type": "uint256"
        }
      ],
      "name": "BidPlaced",
      "type": "event"
    },
    {
      "inputs": [],
      "name": "bid",
      "outputs": [],
      "stateMutability": "payable",
      "type": "function"
    },
    {
      "inputs": [
        {
          "internalType": "address",
          "name": "",
          "type": "address"
        }
      ],
      "name": "bids",
      "outputs": [
        {
          "internalType": "uint256",
          "name": "",
          "type": "uint256"
        }
      ],
      "stateMutability": "view",
      "type": "function"
    },
    {
      "inputs": [],
      "name": "endAuction",
      "outputs": [],
      "stateMutability": "nonpayable",
      "type": "function"
    },
    {
      "inputs": [],
      "name": "endTime",
      "outputs": [
        {
          "internalType": "uint256",
          "name": "",
          "type": "uint256"
        }
      ],
      "stateMutability": "view",
      "type": "function"
    },
    {
      "inputs": [],
      "name": "ended",
      "outputs": [
        {
          "internalType": "bool",
          "name": "",
          "type": "bool"
        }
      ],
      "stateMutability": "view",
      "type": "function"
    },
    {
      "inputs": [],
      "name": "highestBid",
      "outputs": [
        {
          "internalType": "uint256",
          "name": "",
          "type": "uint256"
        }
      ],
      "stateMutability": "view",
      "type": "function"
    },
    {
      "inputs": [],
      "name": "highestBidder",
      "outputs": [
        {
          "internalType": "address",
          "name": "",
          "type": "address"
        }
      ],
      "stateMutability": "view",
      "type": "function"
    },
    {
      "inputs": [],
      "name": "nft",
      "outputs": [
        {
          "internalType": "contract BuddhaNFT",
          "name": "",
          "type": "address"
        }
      ],
      "stateMutability": "view",
      "type": "function"
    },
    {
      "inputs": [],
      "name": "seller",
      "outputs": [
        {
          "internalType": "address",
          "name": "",
          "type": "address"
        }
      ],
      "stateMutability": "view",
      "type": "function"
    },
    {
      "inputs": [],
      "name": "tokenId",
      "outputs": [
        {
          "internalType": "uint256",
          "name": "",
          "type": "uint256"
        }
      ],
      "stateMutability": "view",
      "type": "function"
    },
    {
      "inputs": [],
      "name": "withdraw",
      "outputs": [],
      "stateMutability": "nonpayable",
      "type": "function"
    }
  ],
  "bytecode": "0x60806040523480156200001157600080fd5b50604051620013fd380380620013fd833981810160405281019062000037919062000221565b600160008190555082600160006101000a81548173ffffffffffffffffffffffffffffffffffffffff021916908373ffffffffffffffffffffffffffffffffffffffff1602179055508160028190555033600360006101000a81548173ffffffffffffffffffffffffffffffffffffffff021916908373ffffffffffffffffffffffffffffffffffffffff1602179055508042620000d69190620002ac565b600481905550600160009054906101000a900473ffffffffffffffffffffffffffffffffffffffff1673ffffffffffffffffffffffffffffffffffffffff166323b872dd33306002546040518463ffffffff1660e01b81526004016200013f9392919062000309565b600060405180830381600087803b1580156200015a57600080fd5b505af11580156200016f573d6000803e3d6000fd5b5050505050505062000346565b600080fd5b600073ffffffffffffffffffffffffffffffffffffffff82169050919050565b6000620001ae8262000181565b9050919050565b620001c081620001a1565b8114620001cc57600080fd5b50565b600081519050620001e081620001b5565b92915050565b6000819050919050565b620001fb81620001e6565b81146200020757600080fd5b50565b6000815190506200021b81620001f0565b92915050565b6000806000606084860312156200023d576200023c6200017c565b5b60006200024d86828701620001cf565b935050602062000260868287016200020a565b925050604062000273868287016200020a565b9150509250925092565b7f4e487b7100000000000000000000000000000000000000000000000000000000600052601160045260246000fd5b6000620002b982620001e6565b9150620002c683620001e6565b9250828201905080821115620002e157620002e06200027d565b5b92915050565b620002f281620001a1565b82525050565b6200030381620001e6565b82525050565b6000606082019050620003206000830186620002e7565b6200032f6020830185620002e7565b6200033e6040830184620002f8565b949350505050565b6110a780620003566000396000f3fe60806040526004361061009c5760003560e01c80633ccfd60b116100645780633ccfd60b1461015757806347ccca021461016e57806362ea82db1461019957806391f90157146101d6578063d57bde7914610201578063fe67a54b1461022c5761009c565b806308551a53146100a157806312fa6feb146100cc57806317d70f7c146100f75780631998aeef146101225780633197cbb61461012c575b600080fd5b3480156100ad57600080fd5b506100b6610243565b6040516100c39190610ada565b60405180910390f35b3480156100d857600080fd5b506100e1610269565b6040516100ee9190610b10565b60405180910390f35b34801561010357600080fd5b5061010c61027c565b6040516101199190610b44565b60405180910390f35b61012a610282565b005b34801561013857600080fd5b5061014161045e565b60405161014e9190610b44565b60405180910390f35b34801561016357600080fd5b5061016c610464565b005b34801561017a57600080fd5b5061018361058a565b6040516101909190610bbe565b60405180910390f35b3480156101a557600080fd5b506101c060048036038101906101bb9190610c0a565b6105b0565b6040516101cd9190610b44565b60405180910390f35b3480156101e257600080fd5b506101eb6105c8565b6040516101f89190610ada565b60405180910390f35b34801561020d57600080fd5b506102166105ee565b6040516102239190610b44565b60405180910390f35b34801561023857600080fd5b506102416105f4565b005b600360009054906101000a900473ffffffffffffffffffffffffffffffffffffffff1681565b600860009054906101000a900460ff1681565b60025481565b60045442106102c6576040517f08c379a00000000000000000000000000000000000000000000000000000000081526004016102bd90610c94565b60405180910390fd5b600654341161030a576040517f08c379a000000000000000000000000000000000000000000000000000000000815260040161030190610d00565b60405180910390fd5b600073ffffffffffffffffffffffffffffffffffffffff16600560009054906101000a900473ffffffffffffffffffffffffffffffffffffffff1673ffffffffffffffffffffffffffffffffffffffff16146103db5760065460076000600560009054906101000a900473ffffffffffffffffffffffffffffffffffffffff1673ffffffffffffffffffffffffffffffffffffffff1673ffffffffffffffffffffffffffffffffffffffff16815260200190815260200160002060008282546103d39190610d4f565b925050819055505b3460068190555033600560006101000a81548173ffffffffffffffffffffffffffffffffffffffff021916908373ffffffffffffffffffffffffffffffffffffffff1602179055507f3fabff0a9c3ecd6814702e247fa9733e5d0aa69e3a38590f92cb18f623a2254d3334604051610454929190610d83565b60405180910390a1565b60045481565b61046c610a40565b6000600760003373ffffffffffffffffffffffffffffffffffffffff1673ffffffffffffffffffffffffffffffffffffffff168152602001908152602001600020549050600081116104f3576040517f08c379a00000000000000000000000000000000000000000000000000000000081526004016104ea90610df8565b60405180910390fd5b6000600760003373ffffffffffffffffffffffffffffffffffffffff1673ffffffffffffffffffffffffffffffffffffffff168152602001908152602001600020819055503373ffffffffffffffffffffffffffffffffffffffff166108fc829081150290604051600060405180830381858888f1935050505015801561057e573d6000803e3d6000fd5b5050610588610a8f565b565b600160009054906101000a900473ffffffffffffffffffffffffffffffffffffffff1681565b60076020528060005260406000206000915090505481565b600560009054906101000a900473ffffffffffffffffffffffffffffffffffffffff1681565b60065481565b6105fc610a40565b600454421015610641576040517f08c379a000000000000000000000000000000000000000000000000000000000815260040161063890610e64565b60405180910390fd5b600860009054906101000a900460ff1615610691576040517f08c379a000000000000000000000000000000000000000000000000000000000815260040161068890610ed0565b60405180910390fd5b6001600860006101000a81548160ff021916908315150217905550600073ffffffffffffffffffffffffffffffffffffffff16600560009054906101000a900473ffffffffffffffffffffffffffffffffffffffff1673ffffffffffffffffffffffffffffffffffffffff161461098057600080600160009054906101000a900473ffffffffffffffffffffffffffffffffffffffff1673ffffffffffffffffffffffffffffffffffffffff1663c7ed115e6002546006546040518363ffffffff1660e01b8152600401610766929190610ef0565b6040805180830381865afa158015610782573d6000803e3d6000fd5b505050506040513d601f19601f820116820180604052508101906107a69190610f5a565b915091508173ffffffffffffffffffffffffffffffffffffffff166108fc829081150290604051600060405180830381858888f193505050501580156107f0573d6000803e3d6000fd5b50600360009054906101000a900473ffffffffffffffffffffffffffffffffffffffff1673ffffffffffffffffffffffffffffffffffffffff166108fc8260065461083b9190610f9a565b9081150290604051600060405180830381858888f19350505050158015610866573d6000803e3d6000fd5b50600160009054906101000a900473ffffffffffffffffffffffffffffffffffffffff1673ffffffffffffffffffffffffffffffffffffffff166323b872dd30600560009054906101000a900473ffffffffffffffffffffffffffffffffffffffff166002546040518463ffffffff1660e01b81526004016108ea93929190610fce565b600060405180830381600087803b15801561090457600080fd5b505af1158015610918573d6000803e3d6000fd5b505050507fdaec4582d5d9595688c8c98545fdd1c696d41c6aeaeb636737e84ed2f5c00eda600560009054906101000a900473ffffffffffffffffffffffffffffffffffffffff16600654604051610971929190610d83565b60405180910390a15050610a36565b600160009054906101000a900473ffffffffffffffffffffffffffffffffffffffff1673ffffffffffffffffffffffffffffffffffffffff166323b872dd30600360009054906101000a900473ffffffffffffffffffffffffffffffffffffffff166002546040518463ffffffff1660e01b8152600401610a0393929190610fce565b600060405180830381600087803b158015610a1d57600080fd5b505af1158015610a31573d6000803e3d6000fd5b505050505b610a3e610a8f565b565b600260005403610a85576040517f08c379a0000000000000000000000000000000000000000000000000000000008152600401610a7c90611051565b60405180910390fd5b6002600081905550565b6001600081905550565b600073ffffffffffffffffffffffffffffffffffffffff82169050919050565b6000610ac482610a99565b9050919050565b610ad481610ab9565b82525050565b6000602082019050610aef6000830184610acb565b92915050565b60008115159050919050565b610b0a81610af5565b82525050565b6000602082019050610b256000830184610b01565b92915050565b6000819050919050565b610b3e81610b2b565b82525050565b6000602082019050610b596000830184610b35565b92915050565b6000819050919050565b6000610b84610b7f610b7a84610a99565b610b5f565b610a99565b9050919050565b6000610b9682610b69565b9050919050565b6000610ba882610b8b565b9050919050565b610bb881610b9d565b82525050565b6000602082019050610bd36000830184610baf565b92915050565b600080fd5b610be781610ab9565b8114610bf257600080fd5b50565b600081359050610c0481610bde565b92915050565b600060208284031215610c2057610c1f610bd9565b5b6000610c2e84828501610bf5565b91505092915050565b600082825260208201905092915050565b7f41756374696f6e20656e64656400000000000000000000000000000000000000600082015250565b6000610c7e600d83610c37565b9150610c8982610c48565b602082019050919050565b60006020820190508181036000830152610cad81610c71565b9050919050565b7f4d75737420626964206869676865720000000000000000000000000000000000600082015250565b6000610cea600f83610c37565b9150610cf582610cb4565b602082019050919050565b60006020820190508181036000830152610d1981610cdd565b9050919050565b7f4e487b7100000000000000000000000000000000000000000000000000000000600052601160045260246000fd5b6000610d5a82610b2b565b9150610d6583610b2b565b9250828201905080821115610d7d57610d7c610d20565b5b92915050565b6000604082019050610d986000830185610acb565b610da56020830184610b35565b9392505050565b7f4e6f2062616c616e636500000000000000000000000000000000000000000000600082015250565b6000610de2600a83610c37565b9150610ded82610dac565b602082019050919050565b60006020820190508181036000830152610e1181610dd5565b9050919050565b7f546f6f206561726c790000000000000000000000000000000000000000000000600082015250565b6000610e4e600983610c37565b9150610e5982610e18565b602082019050919050565b60006020820190508181036000830152610e7d81610e41565b9050919050565b7f416c726561647920656e64656400000000000000000000000000000000000000600082015250565b6000610eba600d83610c37565b9150610ec582610e84565b602082019050919050565b60006020820190508181036000830152610ee981610ead565b9050919050565b6000604082019050610f056000830185610b35565b610f126020830184610b35565b9392505050565b600081519050610f2881610bde565b92915050565b610f3781610b2b565b8114610f4257600080fd5b50565b600081519050610f5481610f2e565b92915050565b60008060408385031215610f7157610f70610bd9565b5b6000610f7f85828601610f19565b9250506020610f9085828601610f45565b9150509250929050565b6000610fa582610b2b565b9150610fb083610b2b565b9250828203905081811115610fc857610fc7610d20565b5b92915050565b6000606082019050610fe36000830186610acb565b610ff06020830185610acb565b610ffd6040830184610b35565b949350505050565b7f5265656e7472616e637947756172643a207265656e7472616e742063616c6c00600082015250565b600061103b601f83610c37565b915061104682611005565b602082019050919050565b6000602082019050818103600083015261106a8161102e565b905091905056fea26469706673582212205a781f82c906c3978a41222895bbd295d4fea98f113a0acc383d4658805ff27f64736f6c63430008140033",
  "linkReferences": {},
  "deployedLinkReferences": {}
}