{
  "_format": "hh-sol-artifact-1",
  "contractName": "LuckyBidAuction",
  "sourceName": "contracts/LuckyBidAuction.sol",
  "abi": [
    {
      "inputs": [
        {
          "internalType": "address",
          "name": "_nft",
          "type": "address"
        },
        {
          "internalType": "uint256",
          "name": "_tokenId",
          "type": "uint256"
        },
        {
          "internalType": "uint256",
          "name": "_duration",
          "type": "uint256"
        }
      ],
      "stateMutability": "nonpayable",
      "type": "constructor"
    },
    {
      "inputs": [],
      "name": "bid",
      "outputs": [],
      "stateMutability": "payable",
      "type": "function"
    },
    {
      "inputs": [
        {
          "internalType": "address",
          "name": "",
          "type": "address"
        }
      ],
      "name": "bidAmounts",
      "outputs": [
        {
          "internalType": "uint256",
          "name": "",
          "type": "uint256"
        }
      ],
      "stateMutability": "view",
      "type": "function"
    },
    {
      "inputs": [
        {
          "internalType": "uint256",
          "name": "",
          "type": "uint256"
        }
      ],
      "name": "bidders",
      "outputs": [
        {
          "internalType": "address",
          "name": "",
          "type": "address"
        }
      ],
      "stateMutability": "view",
      "type": "function"
    },
    {
      "inputs": [],
      "name": "endAuction",
      "outputs": [],
      "stateMutability": "nonpayable",
      "type": "function"
    },
    {
      "inputs": [],
      "name": "endTime",
      "outputs": [
        {
          "internalType": "uint256",
          "name": "",
          "type": "uint256"
        }
      ],
      "stateMutability": "view",
      "type": "function"
    },
    {
      "inputs": [],
      "name": "ended",
      "outputs": [
        {
          "internalType": "bool",
          "name": "",
          "type": "bool"
        }
      ],
      "stateMutability": "view",
      "type": "function"
    },
    {
      "inputs": [],
      "name": "nft",
      "outputs": [
        {
          "internalType": "contract BuddhaNFT",
          "name": "",
          "type": "address"
        }
      ],
      "stateMutability": "view",
      "type": "function"
    },
    {
      "inputs": [],
      "name": "refund",
      "outputs": [],
      "stateMutability": "nonpayable",
      "type": "function"
    },
    {
      "inputs": [],
      "name": "seller",
      "outputs": [
        {
          "internalType": "address",
          "name": "",
          "type": "address"
        }
      ],
      "stateMutability": "view",
      "type": "function"
    },
    {
      "inputs": [],
      "name": "tokenId",
      "outputs": [
        {
          "internalType": "uint256",
          "name": "",
          "type": "uint256"
        }
      ],
      "stateMutability": "view",
      "type": "function"
    },
    {
      "inputs": [],
      "name": "winner",
      "outputs": [
        {
          "internalType": "address",
          "name": "",
          "type": "address"
        }
      ],
      "stateMutability": "view",
      "type": "function"
    }
  ],
  "bytecode": "0x60806040523480156200001157600080fd5b506040516200172338038062001723833981810160405281019062000037919062000221565b600160008190555082600160006101000a81548173ffffffffffffffffffffffffffffffffffffffff021916908373ffffffffffffffffffffffffffffffffffffffff1602179055508160028190555033600360006101000a81548173ffffffffffffffffffffffffffffffffffffffff021916908373ffffffffffffffffffffffffffffffffffffffff1602179055508042620000d69190620002ac565b600481905550600160009054906101000a900473ffffffffffffffffffffffffffffffffffffffff1673ffffffffffffffffffffffffffffffffffffffff166323b872dd33306002546040518463ffffffff1660e01b81526004016200013f9392919062000309565b600060405180830381600087803b1580156200015a57600080fd5b505af11580156200016f573d6000803e3d6000fd5b5050505050505062000346565b600080fd5b600073ffffffffffffffffffffffffffffffffffffffff82169050919050565b6000620001ae8262000181565b9050919050565b620001c081620001a1565b8114620001cc57600080fd5b50565b600081519050620001e081620001b5565b92915050565b6000819050919050565b620001fb81620001e6565b81146200020757600080fd5b50565b6000815190506200021b81620001f0565b92915050565b6000806000606084860312156200023d576200023c6200017c565b5b60006200024d86828701620001cf565b935050602062000260868287016200020a565b925050604062000273868287016200020a565b9150509250925092565b7f4e487b7100000000000000000000000000000000000000000000000000000000600052601160045260246000fd5b6000620002b982620001e6565b9150620002c683620001e6565b9250828201905080821115620002e157620002e06200027d565b5b92915050565b620002f281620001a1565b82525050565b6200030381620001e6565b82525050565b6000606082019050620003206000830186620002e7565b6200032f6020830185620002e7565b6200033e6040830184620002f8565b949350505050565b6113cd80620003566000396000f3fe60806040526004361061009c5760003560e01c806347ccca021161006457806347ccca0214610157578063590e1ae31461018257806362b6525514610199578063cff29dfd146101d6578063dfbf53ae14610213578063fe67a54b1461023e5761009c565b806308551a53146100a157806312fa6feb146100cc57806317d70f7c146100f75780631998aeef146101225780633197cbb61461012c575b600080fd5b3480156100ad57600080fd5b506100b6610255565b6040516100c39190610bb6565b60405180910390f35b3480156100d857600080fd5b506100e161027b565b6040516100ee9190610bec565b60405180910390f35b34801561010357600080fd5b5061010c61028e565b6040516101199190610c20565b60405180910390f35b61012a610294565b005b34801561013857600080fd5b5061014161041e565b60405161014e9190610c20565b60405180910390f35b34801561016357600080fd5b5061016c610424565b6040516101799190610c9a565b60405180910390f35b34801561018e57600080fd5b5061019761044a565b005b3480156101a557600080fd5b506101c060048036038101906101bb9190610ce6565b61064f565b6040516101cd9190610c20565b60405180910390f35b3480156101e257600080fd5b506101fd60048036038101906101f89190610d3f565b610667565b60405161020a9190610bb6565b60405180910390f35b34801561021f57600080fd5b506102286106a6565b6040516102359190610bb6565b60405180910390f35b34801561024a57600080fd5b506102536106cc565b005b600360009054906101000a900473ffffffffffffffffffffffffffffffffffffffff1681565b600760009054906101000a900460ff1681565b60025481565b60045442106102d8576040517f08c379a00000000000000000000000000000000000000000000000000000000081526004016102cf90610dc9565b60405180910390fd5b6000341161031b576040517f08c379a000000000000000000000000000000000000000000000000000000000815260040161031290610e35565b60405180910390fd5b6000600660003373ffffffffffffffffffffffffffffffffffffffff1673ffffffffffffffffffffffffffffffffffffffff16815260200190815260200160002054036103c6576005339080600181540180825580915050600190039060005260206000200160009091909190916101000a81548173ffffffffffffffffffffffffffffffffffffffff021916908373ffffffffffffffffffffffffffffffffffffffff1602179055505b34600660003373ffffffffffffffffffffffffffffffffffffffff1673ffffffffffffffffffffffffffffffffffffffff16815260200190815260200160002060008282546104159190610e84565b92505081905550565b60045481565b600160009054906101000a900473ffffffffffffffffffffffffffffffffffffffff1681565b610452610b1c565b600760009054906101000a900460ff166104a1576040517f08c379a000000000000000000000000000000000000000000000000000000000815260040161049890610f04565b60405180910390fd5b600760019054906101000a900473ffffffffffffffffffffffffffffffffffffffff1673ffffffffffffffffffffffffffffffffffffffff163373ffffffffffffffffffffffffffffffffffffffff1603610531576040517f08c379a000000000000000000000000000000000000000000000000000000000815260040161052890610f70565b60405180910390fd5b6000600660003373ffffffffffffffffffffffffffffffffffffffff1673ffffffffffffffffffffffffffffffffffffffff168152602001908152602001600020549050600081116105b8576040517f08c379a00000000000000000000000000000000000000000000000000000000081526004016105af90610fdc565b60405180910390fd5b6000600660003373ffffffffffffffffffffffffffffffffffffffff1673ffffffffffffffffffffffffffffffffffffffff168152602001908152602001600020819055503373ffffffffffffffffffffffffffffffffffffffff166108fc829081150290604051600060405180830381858888f19350505050158015610643573d6000803e3d6000fd5b505061064d610b6b565b565b60066020528060005260406000206000915090505481565b6005818154811061067757600080fd5b906000526020600020016000915054906101000a900473ffffffffffffffffffffffffffffffffffffffff1681565b600760019054906101000a900473ffffffffffffffffffffffffffffffffffffffff1681565b6106d4610b1c565b600454421015610719576040517f08c379a000000000000000000000000000000000000000000000000000000000815260040161071090611048565b60405180910390fd5b600760009054906101000a900460ff1615610769576040517f08c379a0000000000000000000000000000000000000000000000000000000008152600401610760906110b4565b60405180910390fd5b6000600580549050116107b1576040517f08c379a00000000000000000000000000000000000000000000000000000000081526004016107a890611120565b60405180910390fd5b6001600760006101000a81548160ff021916908315150217905550600060058054905042446005805490506040516020016107ee93929190611161565b6040516020818303038152906040528051906020012060001c61081191906111cd565b905060058181548110610827576108266111fe565b5b9060005260206000200160009054906101000a900473ffffffffffffffffffffffffffffffffffffffff16600760016101000a81548173ffffffffffffffffffffffffffffffffffffffff021916908373ffffffffffffffffffffffffffffffffffffffff160217905550600060066000600760019054906101000a900473ffffffffffffffffffffffffffffffffffffffff1673ffffffffffffffffffffffffffffffffffffffff1673ffffffffffffffffffffffffffffffffffffffff168152602001908152602001600020549050600080600160009054906101000a900473ffffffffffffffffffffffffffffffffffffffff1673ffffffffffffffffffffffffffffffffffffffff1663c7ed115e600254856040518363ffffffff1660e01b815260040161095a92919061122d565b6040805180830381865afa158015610976573d6000803e3d6000fd5b505050506040513d601f19601f8201168201806040525081019061099a9190611280565b915091508173ffffffffffffffffffffffffffffffffffffffff166108fc829081150290604051600060405180830381858888f193505050501580156109e4573d6000803e3d6000fd5b50600360009054906101000a900473ffffffffffffffffffffffffffffffffffffffff1673ffffffffffffffffffffffffffffffffffffffff166108fc8285610a2d91906112c0565b9081150290604051600060405180830381858888f19350505050158015610a58573d6000803e3d6000fd5b50600160009054906101000a900473ffffffffffffffffffffffffffffffffffffffff1673ffffffffffffffffffffffffffffffffffffffff166323b872dd30600760019054906101000a900473ffffffffffffffffffffffffffffffffffffffff166002546040518463ffffffff1660e01b8152600401610adc939291906112f4565b600060405180830381600087803b158015610af657600080fd5b505af1158015610b0a573d6000803e3d6000fd5b5050505050505050610b1a610b6b565b565b600260005403610b61576040517f08c379a0000000000000000000000000000000000000000000000000000000008152600401610b5890611377565b60405180910390fd5b6002600081905550565b6001600081905550565b600073ffffffffffffffffffffffffffffffffffffffff82169050919050565b6000610ba082610b75565b9050919050565b610bb081610b95565b82525050565b6000602082019050610bcb6000830184610ba7565b92915050565b60008115159050919050565b610be681610bd1565b82525050565b6000602082019050610c016000830184610bdd565b92915050565b6000819050919050565b610c1a81610c07565b82525050565b6000602082019050610c356000830184610c11565b92915050565b6000819050919050565b6000610c60610c5b610c5684610b75565b610c3b565b610b75565b9050919050565b6000610c7282610c45565b9050919050565b6000610c8482610c67565b9050919050565b610c9481610c79565b82525050565b6000602082019050610caf6000830184610c8b565b92915050565b600080fd5b610cc381610b95565b8114610cce57600080fd5b50565b600081359050610ce081610cba565b92915050565b600060208284031215610cfc57610cfb610cb5565b5b6000610d0a84828501610cd1565b91505092915050565b610d1c81610c07565b8114610d2757600080fd5b50565b600081359050610d3981610d13565b92915050565b600060208284031215610d5557610d54610cb5565b5b6000610d6384828501610d2a565b91505092915050565b600082825260208201905092915050565b7f41756374696f6e20656e64656400000000000000000000000000000000000000600082015250565b6000610db3600d83610d6c565b9150610dbe82610d7d565b602082019050919050565b60006020820190508181036000830152610de281610da6565b9050919050565b7f4d75737420626964000000000000000000000000000000000000000000000000600082015250565b6000610e1f600883610d6c565b9150610e2a82610de9565b602082019050919050565b60006020820190508181036000830152610e4e81610e12565b9050919050565b7f4e487b7100000000000000000000000000000000000000000000000000000000600052601160045260246000fd5b6000610e8f82610c07565b9150610e9a83610c07565b9250828201905080821115610eb257610eb1610e55565b5b92915050565b7f4e6f7420656e6465640000000000000000000000000000000000000000000000600082015250565b6000610eee600983610d6c565b9150610ef982610eb8565b602082019050919050565b60006020820190508181036000830152610f1d81610ee1565b9050919050565b7f57696e6e65722063616e277420726566756e6400000000000000000000000000600082015250565b6000610f5a601383610d6c565b9150610f6582610f24565b602082019050919050565b60006020820190508181036000830152610f8981610f4d565b9050919050565b7f4e6f2066756e6473000000000000000000000000000000000000000000000000600082015250565b6000610fc6600883610d6c565b9150610fd182610f90565b602082019050919050565b60006020820190508181036000830152610ff581610fb9565b9050919050565b7f546f6f206561726c790000000000000000000000000000000000000000000000600082015250565b6000611032600983610d6c565b915061103d82610ffc565b602082019050919050565b6000602082019050818103600083015261106181611025565b9050919050565b7f416c726561647920656e64656400000000000000000000000000000000000000600082015250565b600061109e600d83610d6c565b91506110a982611068565b602082019050919050565b600060208201905081810360008301526110cd81611091565b9050919050565b7f4e6f206269646465727300000000000000000000000000000000000000000000600082015250565b600061110a600a83610d6c565b9150611115826110d4565b602082019050919050565b60006020820190508181036000830152611139816110fd565b9050919050565b6000819050919050565b61115b61115682610c07565b611140565b82525050565b600061116d828661114a565b60208201915061117d828561114a565b60208201915061118d828461114a565b602082019150819050949350505050565b7f4e487b7100000000000000000000000000000000000000000000000000000000600052601260045260246000fd5b60006111d882610c07565b91506111e383610c07565b9250826111f3576111f261119e565b5b828206905092915050565b7f4e487b7100000000000000000000000000000000000000000000000000000000600052603260045260246000fd5b60006040820190506112426000830185610c11565b61124f6020830184610c11565b9392505050565b60008151905061126581610cba565b92915050565b60008151905061127a81610d13565b92915050565b6000806040838503121561129757611296610cb5565b5b60006112a585828601611256565b92505060206112b68582860161126b565b9150509250929050565b60006112cb82610c07565b91506112d683610c07565b92508282039050818111156112ee576112ed610e55565b5b92915050565b60006060820190506113096000830186610ba7565b6113166020830185610ba7565b6113236040830184610c11565b949350505050565b7f5265656e7472616e637947756172643a207265656e7472616e742063616c6c00600082015250565b6000611361601f83610d6c565b915061136c8261132b565b602082019050919050565b6000602082019050818103600083015261139081611354565b905091905056fea264697066735822122033ceb73e7749d6604fbfa33c8cae05b78c78ac2f4aa7305018700b3a715dd69e64736f6c63430008140033",
  "linkReferences": {},
  "deployedLinkReferences": {}
}