{
  "_format": "hh-sol-artifact-1",
  "contractName": "Marketplace",
  "sourceName": "contracts/Marketplace.sol",
  "abi": [
    {
      "inputs": [
        {
          "internalType": "address",
          "name": "_nft",
          "type": "address"
        }
      ],
      "stateMutability": "nonpayable",
      "type": "constructor"
    },
    {
      "anonymous": false,
      "inputs": [
        {
          "indexed": false,
          "internalType": "uint256",
          "name": "tokenId",
          "type": "uint256"
        },
        {
          "indexed": false,
          "internalType": "address",
          "name": "seller",
          "type": "address"
        },
        {
          "indexed": false,
          "internalType": "uint256",
          "name": "price",
          "type": "uint256"
        }
      ],
      "name": "ItemListed",
      "type": "event"
    },
    {
      "anonymous": false,
      "inputs": [
        {
          "indexed": false,
          "internalType": "uint256",
          "name": "tokenId",
          "type": "uint256"
        },
        {
          "indexed": false,
          "internalType": "address",
          "name": "buyer",
          "type": "address"
        },
        {
          "indexed": false,
          "internalType": "uint256",
          "name": "price",
          "type": "uint256"
        }
      ],
      "name": "ItemPurchased",
      "type": "event"
    },
    {
      "inputs": [
        {
          "internalType": "uint256",
          "name": "tokenId",
          "type": "uint256"
        }
      ],
      "name": "buyItem",
      "outputs": [],
      "stateMutability": "payable",
      "type": "function"
    },
    {
      "inputs": [
        {
          "internalType": "uint256",
          "name": "tokenId",
          "type": "uint256"
        },
        {
          "internalType": "uint256",
          "name": "price",
          "type": "uint256"
        }
      ],
      "name": "listItem",
      "outputs": [],
      "stateMutability": "nonpayable",
      "type": "function"
    },
    {
      "inputs": [
        {
          "internalType": "uint256",
          "name": "",
          "type": "uint256"
        }
      ],
      "name": "listings",
      "outputs": [
        {
          "internalType": "address",
          "name": "seller",
          "type": "address"
        },
        {
          "internalType": "uint256",
          "name": "price",
          "type": "uint256"
        }
      ],
      "stateMutability": "view",
      "type": "function"
    },
    {
      "inputs": [],
      "name": "nft",
      "outputs": [
        {
          "internalType": "contract BuddhaNFT",
          "name": "",
          "type": "address"
        }
      ],
      "stateMutability": "view",
      "type": "function"
    }
  ],
  "bytecode": "0x60a060405234801561001057600080fd5b50604051610ecc380380610ecc833981810160405281019061003291906100d7565b60016000819055508073ffffffffffffffffffffffffffffffffffffffff1660808173ffffffffffffffffffffffffffffffffffffffff168152505050610104565b600080fd5b600073ffffffffffffffffffffffffffffffffffffffff82169050919050565b60006100a482610079565b9050919050565b6100b481610099565b81146100bf57600080fd5b50565b6000815190506100d1816100ab565b92915050565b6000602082840312156100ed576100ec610074565b5b60006100fb848285016100c2565b91505092915050565b608051610d9261013a6000396000818160f401528181610172015281816102620152818161056601526106a20152610d926000f3fe60806040526004361061003f5760003560e01c806347ccca0214610044578063883efa671461006f578063de74e57b14610098578063e7fb74c7146100d6575b600080fd5b34801561005057600080fd5b506100596100f2565b6040516100669190610850565b60405180910390f35b34801561007b57600080fd5b50610096600480360381019061009191906108a6565b610116565b005b3480156100a457600080fd5b506100bf60048036038101906100ba91906108e6565b6103c0565b6040516100cd929190610943565b60405180910390f35b6100f060048036038101906100eb91906108e6565b610404565b005b7f000000000000000000000000000000000000000000000000000000000000000081565b60008111610159576040517f08c379a0000000000000000000000000000000000000000000000000000000008152600401610150906109c9565b60405180910390fd5b3373ffffffffffffffffffffffffffffffffffffffff167f000000000000000000000000000000000000000000000000000000000000000073ffffffffffffffffffffffffffffffffffffffff16636352211e846040518263ffffffff1660e01b81526004016101c991906109e9565b602060405180830381865afa1580156101e6573d6000803e3d6000fd5b505050506040513d601f19601f8201168201806040525081019061020a9190610a30565b73ffffffffffffffffffffffffffffffffffffffff1614610260576040517f08c379a000000000000000000000000000000000000000000000000000000000815260040161025790610aa9565b60405180910390fd5b7f000000000000000000000000000000000000000000000000000000000000000073ffffffffffffffffffffffffffffffffffffffff166323b872dd3330856040518463ffffffff1660e01b81526004016102bd93929190610ac9565b600060405180830381600087803b1580156102d757600080fd5b505af11580156102eb573d6000803e3d6000fd5b5050505060405180604001604052803373ffffffffffffffffffffffffffffffffffffffff168152602001828152506001600084815260200190815260200160002060008201518160000160006101000a81548173ffffffffffffffffffffffffffffffffffffffff021916908373ffffffffffffffffffffffffffffffffffffffff160217905550602082015181600101559050507fc93edc6ee14cd6c0c2842099adfa8953b237dbdad304ba28e96dce8a7f2a828c8233836040516103b493929190610b00565b60405180910390a15050565b60016020528060005260406000206000915090508060000160009054906101000a900473ffffffffffffffffffffffffffffffffffffffff16908060010154905082565b61040c610778565b6000600160008381526020019081526020016000206040518060400160405290816000820160009054906101000a900473ffffffffffffffffffffffffffffffffffffffff1673ffffffffffffffffffffffffffffffffffffffff1673ffffffffffffffffffffffffffffffffffffffff168152602001600182015481525050905060008160200151116104d5576040517f08c379a00000000000000000000000000000000000000000000000000000000081526004016104cc90610b83565b60405180910390fd5b806020015134101561051c576040517f08c379a000000000000000000000000000000000000000000000000000000000815260040161051390610bef565b60405180910390fd5b60016000838152602001908152602001600020600080820160006101000a81549073ffffffffffffffffffffffffffffffffffffffff0219169055600182016000905550506000807f000000000000000000000000000000000000000000000000000000000000000073ffffffffffffffffffffffffffffffffffffffff1663c7ed115e85346040518363ffffffff1660e01b81526004016105bf929190610c0f565b6040805180830381865afa1580156105db573d6000803e3d6000fd5b505050506040513d601f19601f820116820180604052508101906105ff9190610c4d565b915091508173ffffffffffffffffffffffffffffffffffffffff166108fc829081150290604051600060405180830381858888f19350505050158015610649573d6000803e3d6000fd5b50826000015173ffffffffffffffffffffffffffffffffffffffff166108fc82346106749190610cbc565b9081150290604051600060405180830381858888f1935050505015801561069f573d6000803e3d6000fd5b507f000000000000000000000000000000000000000000000000000000000000000073ffffffffffffffffffffffffffffffffffffffff166323b872dd3033876040518463ffffffff1660e01b81526004016106fd93929190610ac9565b600060405180830381600087803b15801561071757600080fd5b505af115801561072b573d6000803e3d6000fd5b505050507f78a0660bbda86d17037943644187f6f1f73f2f20a3240bf4cf4a56c2a96bcf8484333460405161076293929190610b00565b60405180910390a15050506107756107c7565b50565b6002600054036107bd576040517f08c379a00000000000000000000000000000000000000000000000000000000081526004016107b490610d3c565b60405180910390fd5b6002600081905550565b6001600081905550565b600073ffffffffffffffffffffffffffffffffffffffff82169050919050565b6000819050919050565b600061081661081161080c846107d1565b6107f1565b6107d1565b9050919050565b6000610828826107fb565b9050919050565b600061083a8261081d565b9050919050565b61084a8161082f565b82525050565b60006020820190506108656000830184610841565b92915050565b600080fd5b6000819050919050565b61088381610870565b811461088e57600080fd5b50565b6000813590506108a08161087a565b92915050565b600080604083850312156108bd576108bc61086b565b5b60006108cb85828601610891565b92505060206108dc85828601610891565b9150509250929050565b6000602082840312156108fc576108fb61086b565b5b600061090a84828501610891565b91505092915050565b600061091e826107d1565b9050919050565b61092e81610913565b82525050565b61093d81610870565b82525050565b60006040820190506109586000830185610925565b6109656020830184610934565b9392505050565b600082825260208201905092915050565b7f5072696365206d7573742062652067726561746572207468616e207a65726f00600082015250565b60006109b3601f8361096c565b91506109be8261097d565b602082019050919050565b600060208201905081810360008301526109e2816109a6565b9050919050565b60006020820190506109fe6000830184610934565b92915050565b610a0d81610913565b8114610a1857600080fd5b50565b600081519050610a2a81610a04565b92915050565b600060208284031215610a4657610a4561086b565b5b6000610a5484828501610a1b565b91505092915050565b7f596f7520646f6e2774206f776e2074686973204e465400000000000000000000600082015250565b6000610a9360168361096c565b9150610a9e82610a5d565b602082019050919050565b60006020820190508181036000830152610ac281610a86565b9050919050565b6000606082019050610ade6000830186610925565b610aeb6020830185610925565b610af86040830184610934565b949350505050565b6000606082019050610b156000830186610934565b610b226020830185610925565b610b2f6040830184610934565b949350505050565b7f4e6f74206c697374656400000000000000000000000000000000000000000000600082015250565b6000610b6d600a8361096c565b9150610b7882610b37565b602082019050919050565b60006020820190508181036000830152610b9c81610b60565b9050919050565b7f4e6f7420656e6f75676820455448000000000000000000000000000000000000600082015250565b6000610bd9600e8361096c565b9150610be482610ba3565b602082019050919050565b60006020820190508181036000830152610c0881610bcc565b9050919050565b6000604082019050610c246000830185610934565b610c316020830184610934565b9392505050565b600081519050610c478161087a565b92915050565b60008060408385031215610c6457610c6361086b565b5b6000610c7285828601610a1b565b9250506020610c8385828601610c38565b9150509250929050565b7f4e487b7100000000000000000000000000000000000000000000000000000000600052601160045260246000fd5b6000610cc782610870565b9150610cd283610870565b9250828203905081811115610cea57610ce9610c8d565b5b92915050565b7f5265656e7472616e637947756172643a207265656e7472616e742063616c6c00600082015250565b6000610d26601f8361096c565b9150610d3182610cf0565b602082019050919050565b60006020820190508181036000830152610d5581610d19565b905091905056fea2646970667358221220d0b325b916133eb606614d4e976e4422ef5138d5d0d12061542d4e056e57281264736f6c63430008140033",
  "linkReferences": {},
  "deployedLinkReferences": {}
}